:100000006F90E025130000001300000013000000B3
:100010001300000013000000130000001300000094
:100020001300000013000000130000001300000084
:08003000130000007300100032
:100038000000000000000000288E0000388E00003C
:1000480000000000A4910000000000000000000073
:10005800A6910000A8910000000000000000000028
:10006800AA91000000000000AC9100000000000010
:10007800AE910000B0910000B2910000B491000070
:10008800B6910000B8910000F2800000A68100003F
:100098005A8200000E830000C2830000C491000051
:1000A800C6910000C8910000CA910000CC910000E0
:1000B800CE910000D0910000D2910000D4910000B0
:1000C800D6910000D8910000DA91000076840000F3
:1000D800DE910000C0860000E2910000E49100007B
:1000E8008087000038880000F8880000EC91000044
:1000F800EE910000F0910000F2910000F4910000F0
:10010800F6910000FE790000C27A0000867B0000AC
:100118008E85000000920000029200000492000008
:10012800F08B0000089200000A9200000C92000078
:100138000E92000010920000B8890000149200008E
:100148004E7C0000127D0000788A0000308B000091
:100158001E920000209200002292000024920000CB
:1001680026920000289200002A9200002C9200009B
:100178002E92000030920000329200000CB0000075
:10018800369200003892000022800000D47D0000E2
:10019800987E0000627F000042920000B08C000050
:1001A80046920000489200004A920000708D0000BC
:1001B8004E920000509200005292000054920000AB
:1001C80056920000589200005A9200005C9200007B
:1001D8000000000000000000000000000000000017
:1001E8000000000000000000000000000000000007
:0801F8000000000000000000FF
:100200003D432A876373C3029377F700BDEFADE5E3
:10021000937606FF3D8ABA960CC34CC30CC74CC7F5
:100220004107E36BD7FE11E28280B306C3408A0622
:100230009702000096966780A6002307B700A306E2
:10024000B7002306B700A305B7002305B700A30432
:10025000B7002304B700A303B7002303B700A3022A
:10026000B7002302B700A301B7002301B700A30022
:10027000B7002300B700828093F5F50F93968500B1
:10028000D58D93960501D58D61B79396270097027A
:10029000000096968682E78086FA9680C1171D8FA9
:1002A0003E96E374C3F8A5B7011122CE00102326B1
:1002B000A4FE37F500E08328450037F500E093F809
:1002C000E8FF2322150183A841820965130505F47F
:1002D00033D5A802AA8601470325C4FEAA87014890
:1002E00037F500E03303F702B308D8029A98338356
:1002F000F60233B6F6029A85B387C8003E860CC96B
:1003000050C9B7F700E09843B7F700E0136707015B
:1003100098C3B7F700E09843B7F700E013671702F8
:1003200098C30100B7F700E0DC4313F717008547D7
:10033000E31AF7FEB7F700E09843B7F700E0799BC0
:1003400098C30100724405618280011106CE22CC5F
:100350000010AA8E2E8E32833685BA853E86C286DE
:100360004687F687A307F4FEF2872307F4FE9A87F1
:10037000A306F4FEAA872306F4FEAE87A305F4FEC7
:10038000B2872305F4FEB687A304F4FEBA872304DC
:10039000F4FE8347F4FE93068004014681453E85C2
:1003A000AD2A8347E4FE93068004014681453E85DD
:1003B000AD228347D4FE93068004014681453E85E5
:1003C000A92A8347C4FE93068004014681453E85E1
:1003D000A9228347B4FE93068004014681453E85E9
:1003E0002D2A8347A4FE93068004014681453E855D
:1003F0002D22834794FE93068004014681453E8565
:10040000292A834784FE93068004014681453E8560
:1004100029228347440093068004014681453E8596
:10042000ED288347040093068004014681453E85FC
:10043000ED208347840093068004014681453E8574
:10044000E9280100F240624405618280011106CE74
:1004500022CC00102326A4FE2324B4FEB2873687C4
:100460002313F4FEBA872312F4FE85450965EF9045
:10047000005EB70705500D472380E700B70705501A
:100480000547A380E700B7070550035744FE2392B2
:10049000E700B7070550035764FE2393E700B7074B
:1004A00005500327C4FE98C7B7070550032784FEED
:1004B000D8C7B707055011472381E70081451305C9
:1004C0006005EF40D05B13056005EF4090570100D9
:1004D000F240624405618280011122CE0010232681
:1004E000A4FE8327C4FE958313F77700B707002087
:1004F0000A0793870704BA979C439C470327C4FEC7
:100500007D8B85463397E600F98FB337F00093F77C
:10051000F70F3E85724405618280797106D622D438
:100520000018232EA4FC232CB4FCB2872328D4FC6F
:10053000A30BF4FC232004FE232204FE232404FE48
:100540008327C4FD958393F7F70F9D8BA307F4FED4
:100550008327C4FD93F7F70FFD8B2307F4FE834732
:10056000F4FE91E785451145EF90C05291A80347ED
:10057000F4FE85476317F70085452145EF908051CC
:1005800081A00347F4FE89476317F700854541457D
:10059000EF90405035A00347F4FE8D476318F700F5
:1005A000854513050002EF90E04E19A80347F4FEBD
:1005B00091476317F700854513050004EF90804DC0
:1005C0008347E4FE0547B317F700C207C183231032
:1005D000F4FE032784FD85476317F702832704FD94
:1005E000C207C183A183C207C18389E78D47232244
:1005F000F4FE11A8832704FDC207C183A183C207AB
:10060000C1832322F4FE832704FDC207C18393F72D
:10061000F70F2324F4FE0347F4FEB70700200A0770
:1006200093870704BA979C43130704FEBA853E8557
:10063000EF80F052032784FD85476319F7020347D3
:10064000F4FEB70700200A0793870704BA9794437C
:100650008347E4FE0547B317F700C207C18303478A
:1006600074FD3A86BE853685EF8010720100B25067
:10067000225445618280797122D60018232EA4FC71
:10068000232CB4FC232AC4FC231504FE231404FEEB
:1006900003A74182832784FDB357F702C183231444
:1006A000F4FE03A74182835784FE8507BE86832715
:1006B00084FDB387F602B357F7022315F4FEB7376C
:1006C0000140938707C02326F4FE8327C4FDC1831E
:1006D000BD8B2547636EF70613972700CD67938779
:1006E000C7AEBA979C438287B7370140938707C04C
:1006F0002326F4FEB1A8B70700402326F4FE89A8FC
:10070000B7070040938707402326F4FE91A0B71750
:100710000040938707802326F4FE1DA8B7170040EA
:10072000938707C02326F4FE25A0B737014093879F
:1007300007402326F4FE29A8B7570140938707C036
:100740002326F4FE31A0B75701402326F4FE010012
:100750008357A4FEFD171397070141838327C4FE27
:100760002396E7028327C4FE035784FE2394E702FF
:100770000357A4FE832744FD3307F7028967938755
:100780000771B357F7022313F4FE8327C4FDA18337
:100790008D8B81EB8327C4FE035764FE239AE70207
:1007A000A9A88327C4FDA18313F7370085476319E0
:1007B000F7008327C4FE035764FE239CE70235A895
:1007C0008327C4FDA18313F7370089476319F70016
:1007D0008327C4FE035764FE239EE70239A88327BC
:1007E000C4FDA18313F737008D476318F7008327F3
:1007F000C4FE035764FE2390E704010032544561B0
:1008000082805D7186C6A2C48008232EA4FA232CA0
:10081000B4FA232AC4FA8327C4FBC1838D453E85DD
:10082000EF10A027AA873E871306D00AC9679385D1
:1008300087573A85EF30904A032744FB89679387AF
:100840001771B337F70093F7F70F3E871306F00AD7
:10085000C967938587573A85EF305048232E04FCAB
:10086000232004FE231204FE232604FC232804FC78
:10087000232A04FC232C04FC231504FE8327C4FB39
:10088000C183BD8B3E85EF10A0278327C4FB93F760
:10089000F70F93068031014685453E85BD39854574
:1008A0000545EF90201FB7370140938707C02326E7
:1008B000F4FE8327C4FBC183BD8B2547636EF70617
:1008C00013972700CD67938747B1BA979C438287D8
:1008D000B7370140938707C02326F4FEB1A8B707B6
:1008E00000402326F4FE89A8B707004093870740FD
:1008F0002326F4FE91A0B717004093870780232694
:10090000F4FE1DA8B7170040938707C02326F4FE06
:1009100025A0B7370140938707402326F4FE29A876
:10092000B7570140938707C02326F4FE31A0B7577D
:1009300001402326F4FE01008327C4FB13D7C70020
:100940008D47631AF7008545B70716001385070C16
:10095000EF80104715AA8327C4FB13D7C700C547EC
:10096000631AF7008545B707180013850710EF8055
:10097000304519AA8327C4FB13D7C700C947631A98
:10098000F7008545B707180013850720EF8050430F
:10099000E5A88327C4FB13D7C700CD47631AF70028
:1009A0008545B707180013850730EF807041E9A827
:1009B0008327C4FB13D7C70093072002631AF700ED
:1009C0008545B7171A0013850780EF80703F6DA823
:1009D0008327C4FB13D7C70093073002631AF700BD
:1009E0008545B7171A00138507C0EF80703D69A8C9
:1009F0008327C4FB13D7C700930710036317F700BF
:100A000085450565EF80D03B41A08327C4FB13D704
:100A1000C70093071007631AF7008545B7070080E2
:100A200013854700EF80D03985A08327C4FB13D7F7
:100A3000C70093073008631AF7008545B70713808E
:100A400013850701EF80D03781A08327C4FB13D71C
:100A5000C70093071009631AF7008545B70715808B
:100A600013850702EF80D03505A08327C4FB13D779
:100A7000C700930730096319F7008545B70715804C
:100A800013850704EF80D03303A74182832784FBBB
:100A9000B357F702C1832315F4FE03A7418283579E
:100AA000A4FE8507BE86832784FBB387F602B3576F
:100AB000F7022314F4FE035784FE832744FB330715
:100AC000F702896793870771B357F7022313F4FE80
:100AD000835784FEFD17C207C1832310F4FE83579A
:100AE000A4FE231EF4FC231104FE231F04FC230296
:100AF00004FE9307C4FDBE850325C4FEEF90802746
:100B0000930700072316F4FC85472317F4FC2318EA
:100B100004FC835764FE2319F4FC8947231AF4FC70
:100B20008947231BF4FC231C04FC231D04FC83279E
:100B3000C4FBA1838D8B9DE39307C4FCBE85032575
:100B4000C4FEEF90003BA1450325C4FEEF90F032B8
:100B500091450325C4FEEF90104745A08327C4FBB1
:100B6000A18313F7370085476315F7029307C4FC89
:100B7000BE850325C4FEEF908051A1450325C4FE28
:100B8000EF907034930500400325C4FEEF90704849
:100B9000ADA08327C4FBA18313F7370089476314F3
:100BA000F7029307C4FCBE850325C4FEEF90406C9A
:100BB000A1450325C4FEEF90B03691450325C4FE40
:100BC000EF90904A1DA88327C4FBA18313F7370039
:100BD0008D476314F7029307C4FCBE850325C4FE4A
:100BE000EF90D006A1450325C4FEEF903038930561
:100BF00000400325C4FEEF90F04B85450325C4FE5D
:100C0000EF90B02185450325C4FEEF90901B0100B5
:100C1000B640264461618280797106D622D40018DC
:100C2000232EA4FC8327C4FDB337F00093F7F70FFE
:100C30003E8713061004C9679385475D3A85EF30F8
:100C4000F0098327C4FD9C43BD8B0547B317F7000C
:100C500093960701C1828327C4FD9C4313D7570095
:100C6000B70700200A0793870704BA979C43368783
:100C700098CB8327C4FDDC43BD8B0547B317F70032
:100C800093960701C1828327C4FDDC4313D7570025
:100C9000B70700200A0793870704BA979C43368753
:100CA00098CB8327C4FDDC472326F4FE010083276D
:100CB000C4FE1387F7FF2326E4FEF5FB8327C4FD5C
:100CC000DC43BD8B0547B317F70093960701C1823C
:100CD0008327C4FDDC4313D75700B70700200A075A
:100CE00093870704BA979C433687D8CB8327C4FDE4
:100CF000DC472324F4FE0100832784FE1387F7FFDB
:100D00002324E4FEF5FB8327C4FD9C43BD8B0547EC
:100D1000B317F70093960701C1828327C4FD9C4354
:100D200013D75700B70700200A0793870704BA971D
:100D30009C433687D8CB0100B25022544561828053
:100D4000797106D622D40018232EA4FC8327C4FD73
:100D5000B337F00093F7F70F3E8713064005C967D6
:100D60009385475D3A85EF3060778327C4FDDC4388
:100D7000BD8B0547B317F70093960701C182832700
:100D8000C4FDDC4313D75700B70700200A07938739
:100D90000704BA979C433687D8CB8327C4FD9C436E
:100DA000BD8B0547B317F70093960701C1828327D0
:100DB000C4FD9C4313D75700B70700200A07938749
:100DC0000704BA979C433687D8CB8327C4FDDC47FA
:100DD0002326F4FE01008327C4FE1387F7FF232692
:100DE000E4FEF5FB8327C4FD9C43BD8B0547B31789
:100DF000F70093960701C1828327C4FD9C4313D754
:100E00005700B70700200A0793870704BA979C4347
:100E1000368798CB8327C4FDDC472324F4FE0100EA
:100E2000832784FE1387F7FF2324E4FEF5FB832743
:100E3000C4FDDC43BD8B0547B317F700939607014C
:100E4000C1828327C4FDDC4313D75700B7070020B6
:100E50000A0793870704BA979C43368798CB832762
:100E6000C4FDDC472322F4FE0100832744FE1387E0
:100E7000F7FF2322E4FEF5FB0100B2502254456146
:100E80008280797106D622D40018232EA4FCAE8766
:100E9000A30DF4FC8327C4FDB337F00093F7F70FDD
:100EA0003E8713069006C9679385475D3A85EF3004
:100EB000E0628327C4FD9C43BD8B0547B317F70051
:100EC00093960701C1828327C4FD9C4313D7570023
:100ED000B70700200A0793870704BA979C43368711
:100EE000D8CB8347B4FD95CB8327C4FDDC43BD8BB2
:100EF0000547B317F70093960701C1828327C4FD06
:100F0000DC4313D75700B70700200A07938707046D
:100F1000BA979C43368798CB0DA88327C4FDDC4342
:100F2000BD8B0547B317F70093960701C18283274E
:100F3000C4FDDC4313D75700B70700200A07938787
:100F40000704BA979C433687D8CB8327C4FDDC4778
:100F50002326F4FE01008327C4FE1387F7FF232610
:100F6000E4FEF5FB8327C4FD9C43BD8B0547B31707
:100F7000F70093960701C1828327C4FD9C4313D7D2
:100F80005700B70700200A0793870704BA979C43C6
:100F9000368798CB8327C4FDDC472324F4FE010069
:100FA000832784FE1387F7FF2324E4FEF5FB8327C2
:100FB000C4FD9C43BD8B0547B317F700939607010B
:100FC000C1828327C4FD9C4313D75700B707002075
:100FD0000A0793870704BA979C433687D8CB8327A1
:100FE000C4FDDC43BD8B0547B317F700939607019B
:100FF000C1828327C4FDDC4313D75700B707002005
:101000000A0793870704BA979C43368798CB010059
:10101000B250225445618280797106D622D40018DC
:10102000232EA4FC8327C4FDB337F00093F7F70FFA
:101030003E8713065008C9679385475D3A85EF30B0
:10104000E049A30704FE8327C4FD9C43BD8B0547ED
:10105000B317F70093960701C1828327C4FD9C4311
:1010600013D75700B70700200A0793870704BA97DA
:101070009C433687D8CB8327C4FDDC43BD8B054713
:10108000B317F70093960701C1828327C4FDDC43A1
:1010900013D75700B70700200A0793870704BA97AA
:1010A0009C43368798CB8327C4FDDC472324F4FE7A
:1010B0000100832784FE1387F7FF2324E4FEF5FB5A
:1010C0008327C4FD9C43BD8B0547B317F700939658
:1010D0000701C1828327C4FD9C4313D75700B7077C
:1010E00000200A0793870704BA979C43368798CB5A
:1010F0008327C4FDDC472322F4FE0100832744FE3E
:101100001387F7FF2322E4FEF5FB8327C4FDDC43AE
:101110003E85EFF06FBCAA8781C78547A307F4FE21
:101120008327C4FD9C43BD8B0547B317F7009396F7
:101130000701C1828327C4FD9C4313D75700B7071B
:1011400000200A0793870704BA979C433687D8CBB9
:101150008327C4FDDC472320F4FE0100832704FE1F
:101160001387F7FF2320E4FEF5FB8347F4FE3E855B
:10117000B250225445618280797106D622D400187B
:10118000232EA4FCAE87A30DF4FC8327C4FDB33744
:10119000F00093F7F70F3E871306700AC96793852F
:1011A000475D3A85EF308033930700F8A307F4FEDC
:1011B00009AA0347B4FD8347F4FEF98F93F7F70FAD
:1011C00095CB8327C4FDDC43BD8B0547B317F700E0
:1011D00093960701C1828327C4FDDC4313D75700D0
:1011E000B70700200A0793870704BA979C433687FE
:1011F00098CB0DA88327C4FDDC43BD8B0547B317EF
:10120000F70093960701C1828327C4FDDC4313D7FF
:101210005700B70700200A0793870704BA979C4333
:101220003687D8CB8347F4FE8583A307F4FE832754
:10123000C4FDDC472324F4FE0100832784FE1387CA
:10124000F7FF2324E4FEF5FB8327C4FD9C43BD8BFD
:101250000547B317F70093960701C1828327C4FDA2
:101260009C4313D75700B70700200A07938707044A
:10127000BA979C43368798CB8327C4FDDC4723224B
:10128000F4FE0100832744FE1387F7FF2322E4FEC8
:10129000F5FB8327C4FD9C43BD8B0547B317F700BF
:1012A00093960701C1828327C4FD9C4313D757003F
:1012B000B70700200A0793870704BA979C4336872D
:1012C000D8CB8347F4FEE39607EE0325C4FDA9338C
:1012D000AA87FD17B337F00093F7F70F3E85B2509A
:1012E000225445618280397106DE22DC26DA8000D4
:1012F0002326A4FCAE87A305F4FC8327C4FCB337E4
:10130000F00093F7F70F3E871306000CC96793852B
:10131000475D3A85EF30801CA30704FEA1472307F1
:10132000F4FE8327C4FC9C43BD8B0547B317F7002D
:1013300093960701C1828327C4FC9C4313D75700AF
:10134000B70700200A0793870704BA979C4336879C
:10135000D8CB8327C4FCDC472324F4FE0100832779
:1013600084FE1387F7FF2324E4FEF5FB8327C4FCE8
:10137000DC43BD8B0547B317F70093960701C18285
:101380008327C4FCDC4313D75700B70700200A07A4
:1013900093870704BA979C43368798CB7DA8832709
:1013A000C4FC9C43BD8B0547B317F7009396070118
:1013B000C1828327C4FC9C4313D75700B707002082
:1013C0000A0793870704BA979C433687D8CB8327AD
:1013D000C4FCDC472322F4FE0100832744FE13876C
:1013E000F7FF2322E4FEF5FB8327C4FC9C43BD8B5F
:1013F0000547B317F70093960701C1828327C4FC02
:101400009C4313D75700B70700200A0793870704A8
:10141000BA979C43368798CB8327C4FCDC472320AC
:10142000F4FE0100832704FE1387F7FF2320E4FE68
:10143000F5FB8347F4FE860793948701E1848327B5
:10144000C4FCDC433E85EFF02F89AA87E207E187E1
:10145000C58FE207E187A307F4FE8347E4FE138705
:10146000F7FF2307E4FE85FF8327C4FC9C43BD8B65
:101470000547B317F70093960701C1828327C4FC81
:101480009C4313D75700B70700200A079387070428
:10149000BA979C433687D8CB8327C4FCDC47232EDE
:1014A000F4FC01008327C4FD1387F7FF232EE4FC1F
:1014B000F5FB8347B4FCBE850325C4FCD9328347C2
:1014C000F4FE3E85F2506254D254216182800111B3
:1014D00006CE22CC00102326A4FEAE873287A305B9
:1014E000F4FEBA872305F4FE8327C4FEB337F00069
:1014F00093F7F70F3E8713062029C9679385475D49
:101500003A85EF20B07D0325C4FEEFF0EFF083278E
:10151000C4FE83C78700860793F7F70FBE850325B0
:10152000C4FE99398347B4FEBE850325C4FEA931A4
:101530008347A4FEBE850325C4FE3D390325C4FEB2
:10154000EFF01F800100F2406244056182807971F2
:1015500006D622D40018232EA4FCAE87A30DF4FCDB
:101560008327C4FDB337F00093F7F70F3E871306C8
:10157000402AC9679385475D3A85EF203076A307F7
:1015800004FE0325C4FDEFF02FE98327C4FD83C7C4
:101590008700860793F7F70FBE850325C4FDE93E54
:1015A0008347B4FDBE850325C4FDF9360325C4FD7C
:1015B000EFF00FF90325C4FDEFF00FE68327C4FD1C
:1015C00083C787008607E207E18793E71700E207F2
:1015D000E18793F7F70FBE850325C4FD713E85456E
:1015E0000325C4FD0933AA87A307F4FE0325C4FD20
:1015F000EFF00FF58347F4FE3E85B250225445616B
:101600008280797106D622D400182326A4FEAE87E4
:101610002322C4FE2320D4FE232EE4FCA305F4FEE3
:101620008327C4FEB337F00093F7F70F3E87130606
:10163000F02BC9679385475D3A85EF20306A032711
:1016400004FE8327C4FDB307F740B337F00093F7D8
:10165000F70F3E871306002CC9679385475D3A85CF
:10166000EF20D0678327C4FE032704FE98C3832797
:10167000C4FE0327C4FDD8C38327C4FE0347B4FEBA
:101680002384E7008327C4FE032744FED8C7C1464E
:1016900005468545032504FEEFE03FE8D1460546B3
:1016A00085450325C4FDEFE05FE70100B2502254F9
:1016B00045618280011122CE00102326A4FEAE8750
:1016C000A305F4FECD670327C4FE0A079387C7B3BB
:1016D000BA979C433E878347B4FEC207C183231653
:1016E000F7000100CD670327C4FE0A079387C7B33D
:1016F000BA979C4383D78700C207C18393F7070833
:10170000F5F3CD670327C4FE0A079387C7B3BA97DB
:101710009C4383D7C7000100724405618280011198
:1017200022CE00102326A4FEAE872315F4FE835795
:10173000A4FEA183C207C18393F6F70FCD670327E9
:10174000C4FE0A079387C7B3BA979C433E87939713
:101750000601C1832316F7000100CD670327C4FEED
:101760000A079387C7B3BA979C4383D78700C207FA
:10177000C18393F70708F5F38357A4FE93F6F70F99
:10178000CD670327C4FE0A079387C7B3BA979C4364
:101790003E8793970601C1832316F7000100CD67AA
:1017A0000327C4FE0A079387C7B3BA979C4383D71E
:1017B0008700C207C18393F70708F5F3010072445D
:1017C000056182805D7186C6A2C480082326A4FCC0
:1017D0002324B4FC2322C4FC2320D4FC232EE4FACB
:1017E000232CF4FA232A04FBCD670327C4FC0A0741
:1017F0009387C7B3BA979C433E85EF80203B8545CE
:101800000545EF802029032704FC93073012631D50
:10181000F7000327C4FB930750126317F7008545B1
:101820000545EF70F05925A0032704FC89679387CD
:10183000A714631EF7000327C4FB89679387C714A7
:101840006317F700854537152000EF707057832721
:10185000C4FC91E785450565EF80C02325A00327DB
:10186000C4FC85476317F70085451165EF80E026C6
:1018700011A80327C4FC89476316F7008545216535
:10188000EF80A025832704FC93F7F70F93068031A0
:10189000054685453E85EFE05FC88327C4FB93F787
:1018A000F70F93068031054685453E85EFE0FFC67C
:1018B000032784FBC167F917630DF700832784FBB7
:1018C00093F7F70F93068034054681453E85EFE098
:1018D000DFC4032744FB9307F00F630DF700832752
:1018E00044FB93F7F70F93060031014685453E858B
:1018F000EFE0BFC2232E04FC232004FE232204FEBB
:10190000232404FE231604FE231E04FC9307401028
:10191000231FF4FC231004FE032784FC8547630582
:10192000F702832784FC81CF032784FC8947630364
:10193000F702032784FC8D476304F7020DA82311E7
:1019400004FE231204FE25A0231104FE8547231262
:10195000F4FE31A889472311F4FE231204FE01A8E6
:1019600089472311F4FE85472312F4FE0100231753
:1019700004FE03A74182832744FCB357F7022317D1
:10198000F4FE03A74182832744FCB377F70291E773
:101990008357E4FEFD172317F4FE0357E4FE930775
:1019A000F00763F7E700930780032317F4FE49A8C5
:1019B0000357E4FE9307F00363F7E7009307000380
:1019C0002317F4FEB5A80357E4FEFD4763F7E700CD
:1019D000930780022317F4FEA5A00357E4FEBD473A
:1019E00063F7E700930700022317F4FE91A803575B
:1019F000E4FE9D4763F6E700E1472317F4FE89A064
:101A00000357E4FE8D4763F6E700C1472317F4FE52
:101A100005A80357E4FE854763F6E700A1472317AF
:101A2000F4FE39A88357E4FE81C7231704FE09A8F2
:101A300013067021C967938547630145EF20102A7B
:101A40008357E4FE2314F4FE930700202313F4FECF
:101A5000231504FE9D472316F4FECD670327C4FC1F
:101A60000A079387C7B3BA979C433E879307C4FD81
:101A7000BE853A85EF80E01ACD670327C4FC0A07CC
:101A80009387C7B3BA979C4385453E85EF80E0288E
:101A90000100B640264461618280797122D6001827
:101AA000232EA4FC232CB4FC8547A307F4FE0327B4
:101AB000C4FD0A079387C18FBA979C4399EB03270C
:101AC000C4FD0A079387C18FBA97032784FD98C383
:101AD00015A00327C4FD0A079387C18FBA979C43BB
:101AE000032784FD6316F7008547A307F4FE19A0BA
:101AF000A30704FE8347F4FE3E853254456182808D
:101B0000011106CE22CC00102326A4FE8327C4FE9A
:101B100081EB8545856713850780EF70B0776DA8E9
:101B20000327C4FE85476317F70085450545EF7019
:101B3000D07A5DA00327C4FE89476317F700854567
:101B40000945EF70907949A80327C4FE8D476317B4
:101B5000F70085451145EF705078BDA80327C4FEF6
:101B600091476317F70085452145EF701077ADA0C9
:101B70000327C4FE95476317F70085454145EF707D
:101B8000D07599A80327C4FE99476318F7008545C7
:101B900013050002EF70707481A00327C4FE9D47F7
:101BA0006317F70085450965EF70D06E35A00327F0
:101BB000C4FEA1476318F700854537050800EF709C
:101BC000706D19A80327C4FEA5476317F700854564
:101BD00037051000EF70106C0100F240624405619F
:101BE0008280797122D60018232EA4FCB7370140D9
:101BF000938707C02326F4FE231504FE0327C4FDA4
:101C0000A54763ECE7088327C4FD13972700CD673A
:101C1000938787B4BA979C438287B73701409387ED
:101C200007C02326F4FE95A8B70700402326F4FE3C
:101C3000ADA0B7070040938707402326F4FEB1A864
:101C4000B7170040938707802326F4FEB9A0B71783
:101C50000040938707C02326F4FE81A0B7170040F9
:101C60002326F4FE1DA8B7170040938707402326BC
:101C7000F4FE25A0B7370140938707402326F4FEE2
:101C800029A8B7570140938707C02326F4FE31A047
:101C9000B75701402326F4FE01000327C4FD0A07BD
:101CA00093874192BA9798438947631FF700832728
:101CB000C4FE83D747021397070141838D47B3576B
:101CC000F7022315F4FE39A08327C4FE83D7470209
:101CD0002315F4FE8357A4FE3E853254456182806D
:101CE000797122D60018232EA4FCB73701409387C0
:101CF00007C02326F4FE0327C4FDA54763ECE708CD
:101D00008327C4FD13972700CD67938707B7BA973A
:101D10009C438287B7370140938707C02326F4FE90
:101D200095A8B70700402326F4FEADA0B7070040F2
:101D3000938707402326F4FEB1A8B7170040938786
:101D400007802326F4FEB9A0B7170040938707C089
:101D50002326F4FE81A0B71700402326F4FE1DA819
:101D6000B7170040938707402326F4FE25A0B73716
:101D70000140938707402326F4FE29A8B757014066
:101D8000938707C02326F4FE31A0B75701402326CE
:101D9000F4FE01008327C4FE23920702010032549F
:101DA00045618280011122CE00102326A4FEAE8759
:101DB000A305F4FE0100CD670327C4FE0A0793873D
:101DC00087B9BA979C4383D70700C207C18393F7AB
:101DD0000708F5D3CD670327C4FE0A07938787B9A1
:101DE000BA979C433E878347B4FEC207C183231240
:101DF000F7000100724405618280011106CE22CCF9
:101E000000102326A4FE2324B4FE2322C4FE83272D
:101E100084FEB337F00093F7F70F3E8713061004E4
:101E2000C967938507693A85EF20406B29A8832706
:101E300084FE138717002324E4FE83C70700BE85B2
:101E40000325C4FE8537832744FE1387F7FF23222B
:101E5000E4FEF1FF0100F24062440561828001115D
:101E600006CE22CC00102326A4FE2324B4FE832712
:101E700084FEB337F00093F7F70F3E871306000593
:101E8000C967938507693A85EF20406539A883279C
:101E900084FE138717002324E4FE8387070093F74B
:101EA000F70FBE850325C4FEF53D832784FE838797
:101EB0000700F1FF0100F2406244056182800111D8
:101EC00006CE22CC00102326A4FEAE87A305F4FE86
:101ED000CD670327C4FE0A07938787B9BA979C4347
:101EE0003E878347B4FE3E86930550523A85EF8085
:101EF000F054138741858327C4FEBA9783C7070030
:101F000081453E85EF30A0378347B4FE81CF1387EC
:101F100041858327C4FEBA9783C707003E85EF300B
:101F2000403219A8138741858327C4FEBA9783C717
:101F300007003E85EF30C0320100F2406244056187
:101F40008280011122CE00102326A4FE2324B4FE99
:101F5000CD670327C4FE0A07938787B9BA979C43C6
:101F600083D70700C207C18393F707028DC7CD67E8
:101F70000327C4FE0A07938787B9BA979C4383D780
:101F80004700C207C18313F7F70F832784FE23801E
:101F9000E700854711A081473E8572440561828034
:101FA000797106D622D40018232EA4FC232CB4FC6D
:101FB000232AC4FC2328D4FC032744FD832704FDE3
:101FC0003D8F8327C4FDB207F98F93B7170093F7AE
:101FD000F70F3E871306A00AC967938507693A85FC
:101FE000EF20C04F832744FD13D78700832704FDCC
:101FF000A183B307F74093B7170093F7F70F3E8716
:102000001306B00AC967938507693A85EF20004D2A
:10201000832744FD93F7F70FE146014685453E854A
:10202000EFE0AFCF832704FD93F7F70F930680040B
:10203000014681453E85EFE04FCE85450545EF7071
:102040007025032744FDC167FD17F98F0D6713073E
:1020500007386387E7200D67130707386369F704BC
:102060000567130757166381E716056713075716A9
:10207000636FF7001307F022638AE70C13076030E1
:102080006381E710130760126388E70865A6096794
:1020900013078736638BE7160D67130707126387ED
:1020A000E71809671307A7146380E71461A615678B
:1020B0001307A738638EE72615671307A7386362EF
:1020C000F7021167130787386380E7201567130746
:1020D00087126385E722116713074712638CE71A9B
:1020E00091AE19671307C7386388E72A1967130782
:1020F000C7386368F7001967130767106384E7261A
:1021000015AE1D671307E7106382E72C1D671307E1
:10211000E7386387E72E39AEB7070140D44FB707DA
:102120000140370700FC7D17758FD8CFB7070140F6
:10213000D843B70701406D9BD8C3B7070140D843C8
:10214000B707014013674700D8C3EDA4B7070140A4
:10215000D44FB7070140370700FC7D17758FD8CFE4
:10216000B7070140D44FB707014037070004558F28
:10217000D8CFB7070140D843B70701406D9BD8C3FC
:1021800055ACB7070140D44FB7070140370700FCF3
:102190007D17758FD8CFB7070140D44FB7070140DF
:1021A00037070004558FD8CFB7070140D843B7078A
:1021B00001406D9BD8C3B7070140D843B707014022
:1021C00013674700D8C3BDA4B7070140D843B7077A
:1021D00001405D9BD8C3B7070140D843B707014012
:1021E00013678700D8C3B9A4B7070140D843B7071E
:1021F00001401377F7FCD8C3B7070140D843B707AE
:10220000014013670701D8C335A4B7070140D8437D
:10221000B70701401377F7FCD8C3B7070140D8438D
:10222000B707014013670703D8C329A4B7070140C4
:10223000D44FB70701403707FDFF7D17758FD8CF03
:10224000B7070140D44F832744FDA18313970701AB
:10225000B70703007D8FB7070140558FD8CFD9AAA4
:10226000B7070140D44FB70701403707FDFF7D177F
:10227000758FD8CFB7070140D44F832744FDA18382
:1022800013970701B70703007D8FB7070140558FEC
:10229000D8CF4DA2B7070140D44FB7070140370749
:1022A000F4FF7D17758FD8CFB7070140D44F832730
:1022B00044FDA18313972701B7070C007D8FB70753
:1022C0000140558FD8CFBDA2B7070140D44FB70703
:1022D00001403707F4FF7D17758FD8CFB70701404E
:1022E000D44F832744FDA18313972701B7070C0020
:1022F0007D8FB7070140558FD8CF2DAAB707014072
:10230000D44FB70701403707D0FF7D17758FD8CF5F
:10231000B7070140D44F832744FDA183139747019A
:10232000B70730007D8FB7070140558FD8CF19A26E
:10233000B7070140D44FB70701403707D0FF7D17DB
:10234000758FD8CFB7070140D44F832744FDA183B1
:1023500013974701B70730007D8FB7070140558FAE
:10236000D8CFC9A8B7070140D44FB70701403707F6
:1023700040FF7D17758FD8CFB7070140D44F832713
:1023800044FDA18313976701B707C0007D8FB7078E
:102390000140558FD8CF79A8B7070140D44FB70770
:1023A0000140370740FF7D17758FD8CFB707014031
:1023B000D44F832744FDA18313976701B707C0005B
:1023C0007D8FB7070140558FD8CFADA0B70701402B
:1023D000D44FB7070140370700FD7D17758FD8CF61
:1023E000B7070140D44F832744FDA183139787018A
:1023F000B70700037D8FB7070140558FD8CF1DA8C1
:10240000B7070140D44FB7070140370700FD7D17DC
:10241000758FD8CFB7070140D44F832744FDA183E0
:1024200013978701B70700037D8FB7070140558FCA
:10243000D8CF01008327C4FD91E785451165EF7072
:10244000606569A80327C4FD85476318F7008545C3
:1024500037050200EF70606851A00327C4FD89476B
:102460006318F700854537050400EF700067BDA0CD
:102470000327C4FD8D476318F7008545370508001D
:10248000EF70A065A1A80327C4FD91476318F7006A
:10249000854537051000EF70406489A00327C4FD0F
:1024A00095476318F700854513050004EF70E06257
:1024B00035A00327C4FD99476318F7008545130528
:1024C0000008EF70806119A80327C4FD9D476317BA
:1024D000F700854513050010EF702060232004FEEF
:1024E000232204FE232404FE232604FE832784FDE6
:1024F0002320F4FE231204FE231304FE231404FEFF
:10250000231604FEB1472315F4FECD670327C4FD4F
:102510000A07938787B9BA979C433E87930704FEBF
:10252000BE853A85EF804048CD670327C4FD0A0782
:10253000938787B9BA979C4385453E85EF80006AAB
:102540000100B250225445618280411106C622C466
:102550000008A1461386818681451385C194EF202A
:10256000F0270100B240224441018280411106C699
:1025700022C4000883A741870547638BE70063886F
:10258000070C0947638DE7000D47638FE702E9A059
:1025900083A701871387170023A8E18675A883A75F
:1025A00001871387170023A8E18603A70187A547A2
:1025B00063F1E70AB7070020938707049C4B116774
:1025C000D8CB23A8018671A003A781878547631410
:1025D000F7081305F008EFD03FF0AA87ADC31945FF
:1025E000EFF02FE0AA873E8783A701871D8F93070F
:1025F000600963F2E7061945EFF08FEE83A70187C4
:10260000D3F717D05385F720EFC0604FC96703A6F3
:10261000076F83A6476FEFB0E013AA872E883E8529
:10262000C285EFC08036AA87139707014183B70799
:1026300000202390E72E094723ACE18629A81945FD
:10264000EFF02FDAAA873E8723A8E18629A00100B0
:1026500021A0010011A001000100B240224441016B
:102660008280411106C622C4000883A7418709471A
:10267000637CF7000D47639AE7001945EFF04FE6DA
:10268000054723ACE18611A001000100B2402244BD
:1026900041018280011106CE22CC0010232204FECB
:1026A00083C7D187638A070E09A8930734FE0546BE
:1026B000BE8513858196EF202034930734FEBE85B6
:1026C0001D45EFF01F88AA87EDF3034734FEA947A5
:1026D0006314F70C99472322F4FE130744FE930773
:1026E00084FE85463A86BE8513858196EF2000617B
:1026F000930784FE138737000D46C9679385876F5C
:102700003A85EFD0E03BAA879DEB03A74188894734
:10271000630DF706054723A2E18813858196EF2014
:10272000E017AA872322F4FE930744FE81463E86E3
:10273000938541A013858196EF20405CB9A0930753
:1027400084FE138737000D46C9679385C76F3A85A6
:10275000EFD00037AA8795EB03A701888947630666
:10276000F702054723A0E18813858196EF20001327
:10277000AA872322F4FE930744FE81463E86938572
:10278000419813858196EF20605713858196EF203D
:10279000E0000547238EE1860100F24062440561B6
:1027A0008280011106CE22CC0010AA87A307F4FE76
:1027B000B707002093870704DC4713070008D8CB2E
:1027C0008347F4FEBE850545EFE0DFEEB707002046
:1027D00093870704DC471307000898CB0100F240F9
:1027E000624405618280011106CE22CC0010AA87C6
:1027F00036872317F4FEAE872316F4FEB28723151F
:10280000F4FEBA872314F4FE83C70181C207C18393
:102810000357E4FEB337F70093F7F70F3E8713062D
:102820009008C9679385877E3A85EF10304B83C740
:102830001181C207C1830357C4FEB337F70093F772
:10284000F70F3E871306A008C9679385877E3A85F0
:10285000EF10D04883C70181C207C1830357A4FE8C
:10286000B337F70093F7F70F3E871306B008C96731
:102870009385877E3A85EF10704683C71181C20722
:10288000C183035784FEB337F70093F7F70F3E87F2
:102890001306C008C9679385877E3A85EF101044F8
:1028A00083A78180BDE31305A002E53D8357E4FEC5
:1028B00093874703C207C183BE850545EFE03FE626
:1028C0008357A4FE93874703C207C183BE8505458E
:1028D000EFE0FFE41305B002E9358357C4FE9387A8
:1028E0008702C207C183BE850545EFE05FE38357DA
:1028F00084FE93878702C207C183BE850545EFE04A
:102900001FE21305C002713D81A203A781808547A4
:102910006314F7061305A00269358357E4FE938715
:102920005703C207C183BE850545EFE05FDF8357CC
:10293000A4FE93875703C207C183BE850545EFE018
:102940001FDE1305B002B13D8357C4FE9387870293
:10295000C207C183BE850545EFE07FDC835784FE57
:1029600093878702C207C183BE850545EFE03FDB41
:102970001305C0023D35C9A803A7818089476314A8
:10298000F7061305A002313D8357E4FE93878702C3
:10299000C207C183BE850545EFE07FD88357A4FEFB
:1029A00093878702C207C183BE850545EFE03FD705
:1029B0001305B002FD338357C4FE93875703C20744
:1029C000C183BE850545EFE09FD5835784FE93877D
:1029D0005703C207C183BE850545EFE05FD41305E9
:1029E000C002C13395A01305A002653B8357E4FEE6
:1029F00093878702C207C183BE850545EFE03FD2BA
:102A00008357A4FE93878702C207C183BE8505450D
:102A1000EFE0FFD01305B00269338357C4FE9387FC
:102A20004703C207C183BE850545EFE05FCF8357EB
:102A300084FE93874703C207C183BE850545EFE047
:102A40001FCE1305C002B13B0100F2406244056194
:102A50008280797106D622D400189307C4FD3E8582
:102A6000EF1030338547231EF4FC83C70181C20772
:102A7000C183231FF4FC83C71181C207C1832310C4
:102A8000F4FE83A7C1800547638AE70099EF994761
:102A90002301F4FEA147A301F4FE09A8A1472301E5
:102AA000F4FEC147A301F4FE11A00100B7370000F6
:102AB0009387C7E92324F4FEB7370000938787ADD7
:102AC0002326F4FE9307C4FD3E85EF10303201004B
:102AD000B250225445618280011106CE22CC0010F2
:102AE00083C701813E8783C71181B307F70223267D
:102AF000F4FEB707002093870704DC474147D8CB93
:102B000083C70181C207C183FD1713970701418362
:102B100083C71181C207C183FD17C207C183BE8667
:102B20003A8681450145C13131A8B707002083D7D6
:102B3000472EBE850545EFE09FBE8327C4FEFD17E7
:102B40002326F4FE8327C4FEEDF3B7070020938706
:102B50000704DC47414798CB0100F240624405611D
:102B60008280011122CE00102326A4FE0327C4FE7A
:102B700023A4E18083A7818005476376F7000D4792
:102B80006363F70209A8130770F82388E1804157AF
:102B9000A388E18009A841572388E180130770F8D2
:102BA000A388E18001000100724405618280011167
:102BB00022CE0010AA872E872317F4FEBA87231689
:102BC000F4FEB70700200357E4FE2391E72EB70772
:102BD00000200357C4FE2392E72E010072440561D2
:102BE0008280797106D622D40018AA87AE863287F1
:102BF000231FF4FCB687231EF4FCBA87A30DF4FC54
:102C000083C70181C207C1830357E4FDB337F700CF
:102C100093F7F70F3E871306D019C9679385877E10
:102C20003A85EF10B00B83C71181C207C1830357E8
:102C3000C4FDB337F70093F7F70F3E871306E0198B
:102C4000C9679385877E3A85EF105009A30704FE74
:102C5000230704FEB707002093870704DC4741479A
:102C6000D8CB83A7C1800547638EE70C639B072001
:102C7000A30704FED1A08347F4FE13970701418305
:102C80008357E4FDBA971395070141818347F4FE0A
:102C90001397070141838357E4FDBA971397070100
:102CA00041838357C4FDA10793960701C1828357CF
:102CB000C4FD3A86BE85EFF01FB38307B4FD1387CA
:102CC00007FE8346F4FE4D66BA878607BA978607E5
:102CD0001307C61BBA97B69783C70700A306F4FE6F
:102CE000230704FE81A08347D4FE858B91CBB707D1
:102CF000002083D7272EBE850545EFE05FA209A8F7
:102D0000B707002083D7472EBE850545EFE03FA1DA
:102D10008347D4FE8583A306F4FE8347E4FE85073C
:102D20002307F4FE0347E4FE9D47E3FEE7FA8347EB
:102D3000F4FE8507A307F4FE0347F4FE9547E3FC82
:102D4000E7F289A2A30704FE3DA28347F4FE13978E
:102D5000070141838357E4FDBA9713950701418129
:102D60008347F4FE1397070141838357E4FDBA9725
:102D70001397070141838357C4FDBD07939607014D
:102D8000C1828357C4FD3A86BE85EFF0DFA5830775
:102D9000B4FD938607FE8347F4FE4D679206130742
:102DA000C7BC3697BA9783C707002306F4FE83078C
:102DB000B4FD938607FE8347F4FEA1074D67920694
:102DC0001307C7BC3697BA9783C70700A305F4FE5D
:102DD000230704FE81A08347C4FE858B91CBB707F0
:102DE000002083D7272EBE850545EFE05F9309A815
:102DF000B707002083D7472EBE850545EFE03F92F9
:102E00008347C4FE85832306F4FE8347E4FE8507DB
:102E10002307F4FE0347E4FE9D47E3FEE7FA23079A
:102E200004FE81A08347B4FE858B91CBB7070020B9
:102E300083D7272EBE850545EFE07F8E09A8B7070B
:102E4000002083D7472EBE850545EFE05F8D834781
:102E5000B4FE8583A305F4FE8347E4FE85072307BC
:102E6000F4FE0347E4FE9D47E3FEE7FA8347F4FEE2
:102E70008507A307F4FE0347F4FE9D47E3F7E7EC5D
:102E800011A00100B707002093870704DC474147E2
:102E900098CB0100B250225445618280797106D6E8
:102EA00022D40018AA872E87232CC4FC231FF4FCED
:102EB000BA87231EF4FC83C70181C207C18303576D
:102EC000E4FDB337F70093F7F70F3E871306101FA3
:102ED000C9679385877E3A85EF10406083C711816B
:102EE000C207C1830357C4FDB337F70093F7F70F49
:102EF0003E871306201FC9679385877E3A85EF10AA
:102F0000E05D231704FE71A083A7C180054763819C
:102F1000E704B5EB0357E4FEBA878607BA9786073E
:102F20001397070141838357E4FDBA9793960701EE
:102F3000C1828357E4FE032784FDBA970387070005
:102F40008357C4FD3A86BE853685EFF09FC92DA80C
:102F50008357E4FE8E071397070141838357E4FDEF
:102F6000BA9793960701C1828357E4FE032784FD35
:102F7000BA97038707008357C4FD3A86BE85368516
:102F8000EFF03FC611A001008357E4FE8507231729
:102F9000F4FE8357E4FE032784FDBA978387070076
:102FA000A5F70100B250225445618280397106DED6
:102FB00022DC8000AA872324C4FC36872317F4FC74
:102FC000AE872316F4FCBA87A303F4FC83C7018100
:102FD000C207C1830357E4FCB337F70093F7F70F39
:102FE0003E871306F020C9679385877E3A85EF10E8
:102FF000E04E83C71181C207C1830357C4FCB337B6
:10300000F70093F7F70F3E8713060021C9679385F2
:10301000877E3A85EF10804C834774FCB337F0000D
:1030200093F7F70F3E8713061021C9679385877EB4
:103030003A85EF10A04A834774FC93B7B70093F723
:10304000F70F3E8713062021C9679385877E3A854F
:10305000EF10C048832784FC2326F4FE85472324F1
:10306000F4FE9307C4FD314681453E85EFD04F996C
:10307000834774FC85073E879307C4FD3A86930512
:1030800000023E85EFD0CF97034774FCA54763EB62
:10309000E70231A8032784FEBA878A07BA97860712
:1030A0002324F4FE834774FCFD17A303F4FC834739
:1030B00074FCEDF30327C4FE832784FEB367F70295
:1030C0002326F4FE9307C4FD8325C4FE3E85EF103E
:1030D000507A9306C4FD0357C4FC8357E4FC36863C
:1030E000BA853E85653B0100F250625421618280C1
:1030F0005D7186C6A2C480082A8E2E832324C4FC58
:103100003685BA853E86C2864687F2872317F4FC49
:103110009A872316F4FCAA872313F4FCAE872312A4
:10312000F4FCB2872311F4FCB6872310F4FCBA87B1
:10313000A30FF4FA83C70181C207C1830357E4FCDC
:10314000B337F70093F7F70F3E871306F02BC967E5
:103150009385877E3A85EF10603883C71181C20757
:10316000C1830357C4FCB337F70093F7F70F3E87CB
:103170001306002CC9679385877E3A85EF100036C9
:10318000832784FCB337F00093F7F70F3E871306CD
:10319000102CC9679385877E3A85EF10203423264B
:1031A00004FE232404FE231304FE232004FE232E06
:1031B00004FCB707002093870704DC474147D8CBBE
:1031C0000357E4FC835724FCBA97C207C183FD1759
:1031D0001396070141820357C4FC835704FCBA9736
:1031E000C207C183FD1793960701C1820357C4FC30
:1031F0008357E4FCBA853E85EFF0EFDE232404FE1E
:10320000F9A0035744FC832784FE3307F702835752
:1032100004FCB357F702232EF4FC232604FE69A80E
:10322000035764FC8327C4FE3307F702835724FC4B
:10323000B357F7022320F4FE035764FC8327C4FD31
:103240003307F702832704FEBA97032784FCBA9753
:1032500083C707002313F4FE835764FE1147636896
:10326000F70413972700CD67938787BBBA979C43D2
:10327000828781450545EFE08FCA15A8C167938510
:10328000F7FF0545EFE0AFC91DA0FD450545EFE09F
:103290000FC931A8C167938507800545EFE02FC8A6
:1032A00039A09305007E0545EFE06FC70100832735
:1032B000C4FE85072326F4FE835724FC0327C4FE9F
:1032C000E360F7F6832784FE85072324F4FE835703
:1032D00004FC032784FEE366F7F2B7070020938718
:1032E0000704DC47414798CB0100B64026446161A2
:1032F0008280411106C622C400081308F00FC1677E
:10330000F91705671307F70285669386D60237A675
:103310004A041306062081450545EFE0AFCAC146C1
:103320000146854513057006EFD02F9FC146014623
:10333000854513057002EFD04F9EC1460546854571
:1033400013054006EFD06F9DC14605468545130520
:103350000006EFD08F9C83A781803E85EFF07F80B1
:10336000B707002003D7272EB707002083D7472EA3
:10337000BE853A85EFF0BF83B70700209387070427
:10338000DC4313070008D8CB1305800CEFC0DFF136
:10339000B707002093870704DC431307000898CB86
:1033A00013054006EFC05FF0B707002093870704BE
:1033B000DC474147D8CB13056003EFF08FBE130500
:1033C0004006EFC07FEE83A781800547638FE7004B
:1033D00081CB09476381E7020D476384E70205A8B3
:1033E00081450545EFE00FAD1DA09305000C054597
:1033F000EFE04FAC29A8930500070545EFE08FAB40
:1034000039A09305000A0545EFE0CFAA0100130596
:10341000A003EFF00FB995450545EFE0AFA91305FF
:10342000200BEFF00FB8B1450545EFE0AFA8B1456F
:103430000545EFE02FA881450545EFE0AFA79305CF
:1034400030030545EFE00FA7930530030545EFE096
:103450006FA61305700BEFF0CFB49305500305452D
:10346000EFE04FA51305B00BEFF0AFB3930570037A
:103470000545EFE02FA41305000CEFF08FB2930584
:10348000C0020545EFE00FA31305200CEFF06FB16C
:1034900085450545EFE00FA21305300CEFF06FB046
:1034A000C9450545EFE00FA11305400CEFF06FAFE4
:1034B000930500020545EFE0EF9F1305600CEFF068
:1034C0004FAEBD450545EFE0EF9E1305000DEFF053
:1034D0004FAD9305400A0545EFE0CF9D9305100AD7
:1034E0000545EFE02F9D1305000EEFF08FAB930520
:1034F000000D0545EFE00F9C91450545EFE08F9BE2
:10350000B5450545EFE00F9BC5450545EFE08F9AB2
:10351000CD450545EFE00F9A9305B0020545EFE074
:103520006F999305F0030545EFE0CF9893054005AB
:103530000545EFE02F989305C0040545EFE08F9710
:10354000E1450545EFE00F97B5450545EFE08F965E
:10355000AD450545EFE00F96FD450545EFE08F953C
:10356000930530020545EFE0EF941305100EEFF0E0
:103570004FA39305000D0545EFE0CF939145054519
:10358000EFE04F93B1450545EFE0CF92C5450545C6
:10359000EFE04F92CD450545EFE0CF919305C00296
:1035A0000545EFE02F919305F0030545EFE08F907F
:1035B000930540040545EFE0EF8F930510050545A1
:1035C000EFE04F8F9305F0020545EFE0AF8EFD452C
:1035D0000545EFE02F8EFD450545EFE0AF8D9305E6
:1035E00000020545EFE00F8D930530020545EFE041
:1035F0006F8C13051002EFF0CF9A4545EFF06F9AEC
:1036000013058007EFC05FCA13059002EFF06F99B2
:10361000B707002093870704DC47414798CBEFF0BA
:10362000AFCBEFF00FC30100B240224441018280D2
:10363000397106DE22DC80002326A4FC8547A3071F
:10364000F4FE231604FE232404FE232E04FC83D759
:1036500001893E87930700236316F700A5472324BB
:10366000F4FE29A0A1472324F4FE01008DA89307AE
:1036700050FA2300F4FE832784FE8A070327C4FC44
:10368000BA978397070093F7F70FA300F4FE8327F9
:1036900084FE8A070327C4FCBA9783972700231365
:1036A000F4FE835764FEA183C207C18393F7F70F2B
:1036B0002301F4FE835764FE93F7F70FA301F4FE92
:1036C000930704FE1146BE851145EFE00FF309454F
:1036D000EFC09FBD832784FEFD172324F4FE03273C
:1036E00084FE9307E00FE3F4E7F81385C194EF102D
:1036F000E01A2A87894763FFE7028D47232EF4FCEF
:103700001307C4FD930704FE81463A86BE851385E0
:10371000C194EF10A05E034714FE9307F00F6308F7
:10372000F700034724FE9307F00F6315F700A30784
:1037300004FE31A80545EFC03FB78357C4FE138789
:1037400017002316E4FE1307F007E370F7FA834728
:10375000F4FE3E85F250625421618280397106DEAA
:1037600022DC80002326A4FCA30704FE231604FE0B
:10377000232404FE232E04FC83D701893E8793076C
:1037800000236316F700A5472324F4FE29A0A147D0
:103790002324F4FE0100832784FEFD172324F4FE76
:1037A00029A203D701899307F02263EDE70083275D
:1037B00084FE8A070327C4FCBA9703970700A5472E
:1037C000630FF70C930750FA2300F4FEC557A300CC
:1037D000F4FE832784FE8A070327C4FCBA978397E5
:1037E00007002313F4FE835764FEA183C207C1833D
:1037F00093F7F70F2301F4FE835764FE93F7F70F57
:10380000A301F4FE930704FE1146BE851145EFE0C7
:10381000CFDE231604FE1385C194EF1020082A87FB
:10382000894763F7E7048D47232EF4FC1307C4FD93
:10383000930704FE81463A86BE851385C194EF1036
:10384000E04B834714FEA20793960701C186834786
:1038500024FE139707014187832784FE8A070326E6
:10386000C4FCB297558F420741872391E70031A8E6
:103870000545EFC07FA38357C4FE138717002316A7
:10388000E4FE1307F007E378F7F80357C4FE930745
:10389000000863F7E7008547A307F4FE19A80100B5
:1038A000832784FEFD172324F4FE832784FEE39AF6
:1038B00007EE8347F4FE3E85F25062542161828018
:1038C000011106CE22CC0010A30704FE9307F4FEDC
:1038D000BE851145EFE0EFE60347F4FE9307500A7B
:1038E0006316F7001385C194EF00506B8347F4FE15
:1038F000BE851385C194EF00B07E0100F2406244A2
:1039000005618280411122C6000805472384E188B1
:103910000100324441018280011106CE22CC001008
:10392000231704FE231604FE232004FE930750FAF7
:103930002302F4FEC557A302F4FE9307200F2315BC
:10394000F4FE8357A4FEA183C207C18393F7F70F48
:103950002303F4FE8357A4FE93F7F70FA303F4FEAB
:10396000930744FE1146BE851145EFE00FC913854C
:10397000C194EF00B0722A87894763F0E7048D474E
:103980002320F4FE130704FE930744FE81463A8683
:10399000BE851385C194EF106036834754FEA2079D
:1039A000139707014187834764FEC207C187D98FF8
:1039B000C207C1872316F4FE31A80545EFC0DF8E8C
:1039C0008357E4FE138717002317E4FE1307F0075D
:1039D000E37FF7F88357C4FE3E85F24062440561F9
:1039E0008280397106DE22DC8000A30704FE0547D1
:1039F00023A6E1889307C4FD1307C004930620069D
:103A00001306401F81453E85EFD0BFBF1305800CD4
:103A1000EFC09F891307C4FDB707002093854705B2
:103A20003A85EF804033AA876380070C23A601887C
:103A300091679386270691671386C70489679385E4
:103A400007581145EFE0CFD585451145EFE02FC769
:103A50001305800CEFC05F85B747000013864790C1
:103A6000B74700009385078C0D45E528EFE0FFADD3
:103A7000EFF09FEAAA873E872398E188B7070020E6
:103A800013854705EFF0DFBAAA8785C79306701B39
:103A9000CD6713868785CD679385C78B0145EF007A
:103AA000702A0146814501456D288547A307F4FE2C
:103AB00025A8B70700201385C707EFF03FCAAA87DC
:103AC00085C79306301CCD6713868785CD679385A0
:103AD000878D0145EF0010270146814501455120A2
:103AE0008547A307F4FE0100B747000013864790FF
:103AF000B74700009385078C0D45A52091473EC42C
:103B000095473EC299473EC0930890021308800231
:103B1000930760021307B004930690041306800411
:103B2000A9452545EFC07F829306800799671386D4
:103B30000782B707002093854756B70700201385F3
:103B40004756EFC0BF908347F4FE3E85F250625463
:103B500021618280411122C60008010032444101E6
:103B60008280011122CE00102326A4FE2324B4FE5D
:103B70002322C4FE0327C4FE23AAE188832744FE30
:103B800081C7832744FE29A0B7470000938747B524
:103B900023ACF180832784FE81C7832784FE29A07C
:103BA000B7470000938747B523AAF180010072440C
:103BB00005618280411122C60008B7170240984370
:103BC000B71702401367170098C3B7170240D443D2
:103BD000B71702403707FFF8758FD8C3B7170240F1
:103BE0009443B71702403707F7FE7D17758F98C3C8
:103BF000B71702409443B71702403707FCFF7D1701
:103C0000758F98C3B7170240D443B71702403707E0
:103C100081FF7D17758FD8C3B717024037079F0004
:103C200098C70100324441018280797106D622D4BE
:103C30000018232EA4FCBD3F232604FE232404FEEB
:103C4000B71702409443B71702404167558F98C396
:103C5000B71702409843B7070200F98F2324F4FEF8
:103C60008327C4FE85072326F4FE832784FE91E77D
:103C70000327C4FE8567E31DF7FCB717024098438E
:103C8000B7070200F98F89C785472324F4FE19A0DE
:103C9000232404FE032784FE85476312F716371793
:103CA0000240B71702405843D8C337170240B7172E
:103CB00002405843D8C337170240B7170240584351
:103CC000D8C3B7170240D443B71702403707C1FF24
:103CD0007D17758FD8C30327C4FDB7479508938711
:103CE0000740631BF700B7170240D443B7170240E1
:103CF0004167558FD8C355A80327C4FDB7172707B9
:103D0000938707E0631CF700B7170240D443B71747
:103D1000024037073900558FD8C341A80327C4FD97
:103D2000B7E7B80593870780631CF700B717024011
:103D3000D443B717024037072900558FD8C3B5A021
:103D40000327C4FDB7A74A0493870720631CF70025
:103D5000B7170240D443B717024037071D00558FED
:103D6000D8C3A1A00327C4FDB777DC02938707C09F
:103D7000631CF700B7170240D443B7170240370758
:103D80001100558FD8C315A00327C4FDB7376E01A6
:103D900093870760631BF700B7170240D443B71738
:103DA000024037070500558FD8C3B7170240944328
:103DB000B717024037070001558F98C30100B717A6
:103DC00002409843B7070002F98FF5DBB7170240AE
:103DD000D843B7170240719BD8C3B7170240D843E6
:103DE000B717024013672700D8C30100B717024076
:103DF000DC4313F7C700A147E31AF7FE11A001A0A7
:103E0000B250225445618280011106CE22CC0010AE
:103E10002326A4FE0327C4FE23A2E182EFF09FD94C
:103E20000325C4FEEFF07FE0EF10E04D0100F2400B
:103E3000624405618280411122C600080100010030
:103E4000324441018280011106CE22CC001023268B
:103E500004FE232404FE232604FE25A0232404FEBE
:103E600039A0D13F832784FE85072324F4FE03274E
:103E700084FEC167E367F7FE8327C4FE8507232618
:103E8000F4FE0327C4FE9307F00FE3F9E7FC0100FB
:103E9000F240624405618280411122C6000801009F
:103EA000324441018280011106CE22CC001023262B
:103EB000A4FE8325C4FE0945EFD07FFA0100F2403D
:103EC000624405618280130101D92326112623242F
:103ED000812623229126801C232EA4D8232CB4D8FB
:103EE000232AC4D82328D4D8231504FE231404FE7F
:103EF000231304FE231204FE231104FE032584D998
:103F0000EFB0F03AAA87C207C1872313F4FEB76760
:103F1000002083D707DE99C7B7670020938707DEA5
:103F20009C4B829783C7918993F7F70F6385074E60
:103F3000B767002083D707DE63890746B76700208D
:103F4000938707DED447835724FE139707014187E1
:103F500093170701C1838507C207C183C207C187C1
:103F60002311F4FE93170701C1830326C4D9BE852C
:103F700001458296832784D92326F4FE032584D91C
:103F8000EFB0F032AA87C207C1872313F4FEB767E8
:103F90000020938707DE83D727003E87B76700207E
:103FA000938707DE83C76700B347F702C207C1875D
:103FB0002312F4FE01008327C4FE13871700232673
:103FC000E4FE83870700E5FB231404FEA1A88327F2
:103FD000C4FEFD172326F4FE8327C4FE03870700D3
:103FE0009307F002630AF7008327C4FE03870700E4
:103FF0009307C005631BF700835784FEC207C18384
:104000008507C207C1832314F4FE835764FEC207E9
:10401000C187C207C183FD17C207C183C207C18719
:104020002313F4FE835784FE1397070141838547CA
:1040300063E8E700835764FEC207C187E3D907F846
:10404000835764FEC207C18763C207028327C4FE89
:1040500085072326F4FE130704EE0326C4FECD676E
:104060009385478F3A85EFB030201DA8835784FE93
:10407000C207C18381EF130704EE0326C4FECD6798
:10408000938507903A85EFB0301E19A8130704EE08
:104090000326C4FECD679385478F3A85EFB0D01CC9
:1040A000231504FE05A2231404FE59A0930704EE71
:1040B0003E85EFB0D01F2A87835784FEC207C18395
:1040C000BE868357A4FEC207C1833E86835744FE43
:1040D000C207C187B307F602B6976367F70683572F
:1040E00084FEC207C1833E878357A4FEC207C183F3
:1040F000BE86835744FEC207C187B387F602BA97CC
:10410000035784FE42074183BA86130704FFBA9718
:10411000038707EF930704FFB6972388E7EA8357DF
:1041200084FEC207C1838507C207C1832314F4FE3E
:10413000835784FEC207C1833E87835744FEC2076C
:10414000C187E345F7F611A00100835784FEC2073B
:10415000C183130704FFBA97238807EAB7670020D3
:10416000938707DE03A8C700B7670020938707DEA1
:1041700083C77700139707014183835724FE9396E3
:104180000701C18693970601C1838507C207C183D2
:10419000C207C1872311F4FE93970601C183B307B9
:1041A000F702C207C183130704EA3A86BE850145B8
:1041B00002988357A4FEC207C1838507C207C18343
:1041C0002315F4FE8357A4FEC207C183BE84930760
:1041D00004EE3E85EFB0B00D2A87835744FEC20738
:1041E000C187B357F7028507E3EFF4EA130704EE3C
:1041F000032644D9CD67938507913A85EFB0D00661
:10420000B7670020938707DE03A8C700B7670020C1
:10421000938707DE83C7770013970701418383578E
:1042200024FE93960701C18693970601C1838507F3
:10423000C207C183C207C1872311F4FE9397060109
:10424000C183B307F702C207C183130704EE3A869E
:10425000BE8501450298832704D9638E071A23156A
:1042600004FE05A2231404FE59A0032504D9EFB0CF
:1042700010042A87835784FEC207C183BE868357F2
:10428000A4FEC207C1833E86835744FEC207C1878E
:10429000B307F602B6976368F706835784FEC20732
:1042A000C1833E878357A4FEC207C183BE8683575E
:1042B00044FEC207C187B387F602BA973E878327B9
:1042C00004D9BA97035784FE42074183BA8603870D
:1042D0000700930704FFB6972388E7EA835784FE15
:1042E000C207C1838507C207C1832314F4FE835725
:1042F00084FEC207C1833E87835744FEC207C1873D
:10430000E345F7F611A00100835784FEC207C1837D
:10431000130704FFBA97238807EAB767002093873B
:1043200007DE03A8C700B7670020938707DE83C7AF
:104330007700139707014183835724FE9396070163
:10434000C18693970601C1838507C207C183C2074F
:10435000C1872311F4FE93970601C183B307F702C7
:10436000C207C183130704EA3A86BE850145029855
:104370008357A4FEC207C1838507C207C1832315E3
:10438000F4FE8357A4FEC207C183BE84032504D96B
:10439000EFB0E0712A87835744FEC207C187B35745
:1043A000F7028507E3E0F4ECBDA0930704DA1306F7
:1043B000001081453E85EFB0BFE4B76700209387CA
:1043C00007DE9C470325C4D98297832704D999CF58
:1043D000130504DA032704D9832644D9032684D994
:1043E000CD679385C791EFB0206829A8130704DA39
:1043F000832644D9032684D9CD67938587933A854C
:10440000EFB08066B7670020938707DE9847930771
:1044100004DA3E85029701008320C1260324812609
:1044200083244126130101278280411106C622C43C
:10443000000883C7918993F7F70F91CF93858189FE
:104440000945EFD01FB0054693858189B7670020E5
:10445000138547DC55230100B2402244410182808C
:10446000797106D622D40018232EA4FC232CB4FC88
:10447000232AC4FC232604FEA9A00100CD6793874C
:1044800087B99C47930500043E85EF60500AAA87D0
:10449000F5D7CD67938787B99C47BE86832784FD70
:1044A00013871700232CE4FC83870700C207C1830E
:1044B000BE853685EF60D0048327C4FE850723269A
:1044C000F4FE0327C4FE832744FDE348F7FA83275D
:1044D00044FD3E85B250225445618280011106CED2
:1044E00022CC0010AA872324B4FE2322C4FEA307F3
:1044F000F4FE8347F4FEB1E383C7818293F7F70F9D
:104500008DCF83C7A18991C301A083C7A1898507E6
:1045100013F7F70F238DE188EF00305CEFF0DF97A2
:104520008146032644FE832584FECD6713850795C7
:10453000EFF07F99EFF03F91E5B70100F240624460
:1045400005618280011106CE22CC0010AA872324A7
:10455000B4FE2322C4FE2320D4FEA307F4FE834727
:10456000F4FE95E383C7918993F7F70F91CF8326E4
:1045700084FE032604FE832544FECD67138507963B
:10458000EFF07F9411A001000100F2406244056148
:104590008280011122CE00102326A4FE8327C4FEB0
:1045A000239007008327C4FE7D572391E7008327CC
:1045B000C4FE7D572392E7008327C4FE7D572383E3
:1045C000E7008327C4FE7D57A383E7008327C4FE4B
:1045D00023A407008327C4FE23A607008327C4FE65
:1045E00023A807000100724405618280011122CED8
:1045F00000102326A4FE8327C4FE03D70700B76755
:1046000000202390E7DE8327C4FE03D72700B76787
:104610000020938707DE2391E7008327C4FE03D79A
:104620004700B7670020938707DE2392E7008327C0
:10463000C4FE03C76700B7670020938707DE2383A4
:10464000E7008327C4FE03C77700B767002093877E
:1046500007DEA383E7008327C4FE9847B7670020DF
:10466000938707DE98C78327C4FED847B767002023
:10467000938707DED8C78327C4FE984BB76700200F
:10468000938707DE98CB0547A38CE188010072442D
:1046900005618280797106D622D400189307C4FD83
:1046A0003E85EFF01FEFB7470000938767EA2322AC
:1046B000F4FE9307C4FD3E85EFF05FF389679386B0
:1046C000B70289671386A702F1679385072009451A
:1046D000EFD01F8D93060004B7670020138647D8DC
:1046E0008145B7670020138547DCEF00300F854513
:1046F0000945EFD0CFFC0100B250225445618280C1
:10470000011122CE00102326A4FE2324B4FE832709
:10471000C4FED847832784FE3E978327C4FED8C7AC
:1047200019A88327C4FED8478327C4FE9C4F1D8F3A
:104730008327C4FED8C78327C4FE984F8327C4FEAF
:10474000DC47E3F0E7FE010072440561828001115D
:1047500022CE00102326A4FE2324B4FE8327C4FE09
:10476000984B832784FE3E978327C4FE98CB19A8D5
:104770008327C4FE984B8327C4FE9C4F1D8F83273D
:10478000C4FE98CB8327C4FE984F8327C4FE9C4B5E
:10479000E3F0E7FE0100724405618280797106D67C
:1047A00022D40018232EA4FC8327C4FDB337F000C5
:1047B00093F7F70F3E8713064005CD679385C7969D
:1047C0003A85EFF0BFD1232604FE8327C4FD83C7BB
:1047D0000700858B93F7F70F89C789472326F4FED7
:1047E0007DA08327C4FD83C7070093E7170013F755
:1047F000F70F8327C4FD2380E7008327C4FD23A68A
:1048000007008327C4FD23A807008327C4FD984F12
:104810008327C4FDD8CB8327C4FDDC4305476383CE
:10482000E70289C70947638CE702B9A08327C4FD63
:1048300098478327C4FD9C4F3E8681453A85EFB05B
:104840003F9C1DA88327C4FD98478327C4FD9C4F28
:1048500086073E8681453A85EFB09F9A31A8832727
:10486000C4FD98478327C4FD9C4F8A073E86814537
:104870003A85EFB0FF9801008327C4FD83C7070086
:10488000F99B13F7F70F8327C4FD2380E7008327E5
:10489000C4FE3E85B250225445618280011106CE8D
:1048A00022CC00102326A4FE8327C4FEB337F000D9
:1048B00093F7F70F3E871306C007CD679385C7961A
:1048C0003A85EFF0BFC18327C4FE984F8327C4FE0B
:1048D000DC4BB307F7403E85F240624405618280BD
:1048E000797106D622D40018232EA4FC232CB4FC04
:1048F0008327C4FDB337F00093F7F70F3E87130605
:10490000A008CD679385C7963A85EFF03FBD232673
:1049100004FE8327C4FD83C70700898B93F7F70F35
:1049200089C785472326F4FEC9A08327C4FD83C712
:10493000070093E7270013F7F70F8327C4FD2380B1
:10494000E7008327C4FDDC4BD9C38327C4FDDC43C8
:1049500005476385E70289C709476380E70491A893
:104960008327C4FD98478327C4FDDC47BA970327F4
:1049700084FD1377F70F2380E70025A88327C4FD64
:1049800098478327C4FDDC478607BA97032784FD31
:10499000420741832390E70029A88327C4FD984755
:1049A0008327C4FDDC478A07BA97032784FD98C391
:1049B000010085450325C4FDEFF09FD48327C4FD86
:1049C000DC4B1387F7FF8327C4FDD8CB21A0914789
:1049D0002326F4FE8327C4FD83C70700F59B13F746
:1049E000F70F8327C4FD2380E7008327C4FE3E859D
:1049F000B250225445618280797106D622D40018C3
:104A0000232EA4FC232CB4FC232AC4FC8327C4FD3E
:104A1000B337F00093F7F70F3E871306C00BCD674F
:104A20009385C7963A85EFF07FAB232604FE2324B7
:104A300004FE832784FD89E78D472326F4FE45ACD9
:104A40008327C4FD83C70700898B93F7F70F89C7B6
:104A500085472326F4FE61AC8327C4FD83C7070086
:104A600093E7270013F7F70F8327C4FD2380E700A0
:104A70008327C4FDDC4B032744FD63ECE724832735
:104A8000C4FD984F8327C4FDDC47B307F7402324B8
:104A9000F4FE032744FD832784FE63F2E71883278F
:104AA000C4FDDC430547638FE70689C7094763896F
:104AB000E70E31A48327C4FD98478327C4FDDC4754
:104AC000BA97032684FE832584FD3E85EFA0E04A45
:104AD000832584FE0325C4FDEFF09FC28327C4FD18
:104AE00098478327C4FDDC47B306F700032784FDFE
:104AF000832784FEB305F700032744FD832784FE44
:104B0000B307F7403E863685EFA02047032744FDD4
:104B1000832784FEB307F740BE850325C4FDEFF06D
:104B20003FBE71AA8327C4FD98478327C4FDDC4795
:104B300086073E97832784FE86073E86832584FD6D
:104B40003A85EFA08043832584FE0325C4FDEFF062
:104B50003FBB8327C4FD98478327C4FDDC478607F6
:104B6000B306F700832784FE8607032784FDB30579
:104B7000F700032744FD832784FEB307F740860729
:104B80003E863685EFA0603F032744FD832784FEE1
:104B9000B307F740BE850325C4FDEFF07FB605A23D
:104BA0008327C4FD98478327C4FDDC478A073E97C7
:104BB000832784FE8A073E86832584FD3A85EFA0FD
:104BC000C03B832584FE0325C4FDEFF07FB383271C
:104BD000C4FD98478327C4FDDC478A07B306F70066
:104BE000832784FE8A07032784FDB305F700032784
:104BF00044FD832784FEB307F7408A073E86368547
:104C0000EFA0A037032744FD832784FEB307F740B6
:104C1000BE850325C4FDEFF0BFAE01004DA0832784
:104C2000C4FDDC430547638CE70289C709476380FD
:104C3000E70671A08327C4FD98478327C4FDDC479E
:104C4000BA97032644FD832584FD3E85EFA0E0321C
:104C5000832544FD0325C4FDEFF09FAA8DA0832783
:104C6000C4FD98478327C4FDDC4786073E9783270A
:104C700044FD86073E86832584FD3A85EFA0E02F1C
:104C8000832544FD0325C4FDEFF09FA70DA88327CE
:104C9000C4FD98478327C4FDDC478A073E978327D6
:104CA00044FD8A073E86832584FD3A85EFA0E02CEB
:104CB000832544FD0325C4FDEFF09FA40100832755
:104CC000C4FDD84B832744FD1D8F8327C4FDD8CB5B
:104CD00021A091472326F4FE8327C4FD83C7070044
:104CE000F59B13F7F70F8327C4FD2380E700832785
:104CF000C4FE3E85B250225445618280797106D649
:104D000022D40018232EA4FC232CB4FC232AC4FC98
:104D10002328D4FC8327C4FDB337F00093F7F70FA3
:104D20003E8713067016CD679385C7963A85EFF0D8
:104D3000EFFA832744FDB337F00093F7F70F3E8770
:104D400013068016CD679385C7963A85EFF00FF965
:104D5000232604FE832784FD89E78D472326F4FE5E
:104D6000A1AC8327C4FD83C7070093E7470013F76F
:104D7000F70F8327C4FD2380E7000325C4FDEFF070
:104D8000FFB12324A4FE832744FD9C43032784FE14
:104D9000637AF700832744FD032784FE98C3954771
:104DA0002326F4FE8327C4FD984F8327C4FD9C4B24
:104DB000B307F7402322F4FE832744FD9C430327D7
:104DC00044FE6365F7088327C4FDDC430547638819
:104DD000E70289C709476387E704BDA28327C4FDAB
:104DE00098478327C4FD9C4B3E97832744FD9C43F3
:104DF0003E86BA85032584FDEFA02018B1A2832743
:104E0000C4FD98478327C4FD9C4B86073E978327A4
:104E100044FD9C4386073E86BA85032584FDEFA0AA
:104E2000C0151DA28327C4FD98478327C4FD9C4B52
:104E30008A073E97832744FD9C438A073E86BA85AE
:104E4000032584FDEFA060130100FDA88327C4FDA6
:104E5000DC430547638AE70489C70947638EE7088F
:104E6000E5A08327C4FD98478327C4FD9C4BBA97D0
:104E7000032644FEBE85032584FDEFA00010032712
:104E800084FD832744FEB306F7008327C4FD8C47C7
:104E9000832744FD9843832744FEB307F7403E86AB
:104EA0003685EFA0800D4DA08327C4FD984783274A
:104EB000C4FD9C4B86073E97832744FE86073E86AB
:104EC000BA85032584FDEFA0400B832744FE8607A7
:104ED000032784FDB306F7008327C4FD8C4783278F
:104EE00044FD9843832744FEB307F74086073E8678
:104EF0003685EFA0800889A88327C4FD98478327BB
:104F0000C4FD9C4B8A073E97832744FE8A073E8652
:104F1000BA85032584FDEFA04006832744FE8A0757
:104F2000032784FDB306F7008327C4FD8C4783273E
:104F300044FD9843832744FEB307F7408A073E8623
:104F40003685EFA080030100832704FDB5E78327A2
:104F5000C4FD83C70700858B93F7F70F89C789477F
:104F60002326F4FE91A88327C4FD83C7070093E797
:104F7000170013F7F70F8327C4FD2380E70083276B
:104F800044FD9C43BE850325C4FDEFF04FFC832701
:104F9000C4FDD84B832744FD9C433E978327C4FD23
:104FA000D8CB8327C4FD83C70700F99B13F7F70FFE
:104FB0008327C4FD2380E7008327C4FD83C7070040
:104FC000918B13F7F70F8327C4FD2380E700832716
:104FD000C4FE3E85B250225445618280797106D666
:104FE00022D40018232EA4FC232CB4FC232AC4FCB6
:104FF0002328D4FC8327C4FDB337F00093F7F70FC1
:105000003E8713068021CD679385C7963A85EFF0DA
:10501000EFCC232604FE832744FD89E78D47232612
:10502000F4FE89A08327C4FD032744FD98C7832786
:10503000C4FD238007008327C4FD032784FDD8C354
:105040008327C4FD23A607008327C4FD23A80700E8
:105050008327C4FD032704FDD8CB8327C4FD032782
:1050600004FD98CF8327C4FE3E85B250225445618B
:105070008280397106DE22DC80002326A4FC2324F2
:10508000B4FC8327C4FCB337F00093F7F70F3E87D7
:1050900013060008CD679385879C3A85EFF00FC40F
:1050A000A30704FE232404FE8327C4FCE1CB83274B
:1050B00084FC63D307028327C4FC138717002326CD
:1050C000E4FC1307D0022380E700832784FCB307A6
:1050D000F0402324F4FCB9A8832784FCA1EF8327A4
:1050E000C4FC130700032380E70051A8032784FCB6
:1050F000A947B367F7022324F4FE832784FE13D75E
:10510000F741832784FEB98F998F0347F4FE9306F6
:105110001700A307D4FEBA8613F7F70F930704FF0F
:10512000B6972384E7FE032784FCA947B347F70219
:105130002324F4FC832784FCD5FB2DA88347F4FEAD
:10514000FD17130704FFBA9783C787FE93870703EA
:1051500093F6F70F8327C4FC138717002326E4FC7C
:105160001397860161872380E7008347F4FEFD17CC
:10517000A307F4FE8347F4FEF1F311A00100010040
:10518000F250625421618280411122C60008996761
:105190009387870873900780010032444101828021
:1051A000411122C6000899677390078001003244BC
:1051B00041018280011122CE00102326A4FE832704
:1051C000C4FEFD8B0547B316F70037E700E08327E1
:1051D000C4FE9583938707048A07BA9794C3010096
:1051E000724405618280011122CE00102326A4FEA4
:1051F0008327C4FEFD8B0547B316F70037E700E0B1
:105200008327C4FE9583938707068A07BA9794C3BA
:105210000100724405618280011122CE0010232614
:10522000A4FEAE87A305F4FE37E700E08327C4FEA3
:10523000BA970347B4FE2380E7400100724405613A
:105240008280011106CE22CC00102326A4FE032565
:10525000C4FEEFF03FF60100F24062440561828037
:10526000011106CE22CC00102326A4FE0325C4FE85
:10527000EFF07FF70100F240624405618280011186
:1052800006CE22CC00102326A4FEAE87A305F4FE92
:105290008347B4FEBE850325C4FEEFF0FFF701008F
:1052A000F240624405618280011106CE22CC0010DA
:1052B0002326A4FE8327C4FE99C783A7C189138729
:1052C000F7FF23AEE18883A7C18999E3EFF0DFEB15
:1052D0000100F240624405618280411106C622C489
:1052E000000883A7C18999E3EFF09FEB83A7C189E9
:1052F0001387170023AEE18883A7C1893E85B2409A
:10530000224441018280411106C622C400080145A1
:10531000EFF09FF90100B24022444101828079718F
:1053200022D60018AA87232AE4FC231FF4FCAE87A8
:10533000231EF4FCB287231DF4FCB687231CF4FC67
:105340000357E4FD9307000563F6E70093070005A4
:10535000231FF4FC0357A4FD9307000563F6E70041
:1053600093070005231DF4FC0357C4FD9307C003F6
:1053700063F6E7009307C003231EF4FC035784FD84
:105380009307C00363F6E7009307C003231CF4FCF4
:105390000357E4FD8357A4FD6374F700854711A00C
:1053A000FD572317F4FE0357C4FD835784FD637430
:1053B000F700854711A0FD572316F4FE232404FEB1
:1053C000232204FE0357E4FD8357A4FD6300F71274
:1053D0000357C4FD835784FDB307F74053F707D045
:1053E0000357E4FD8357A4FDB307F740D3F707D075
:1053F000D377F7182724F4FE8357C4FD53F717D04B
:105400008357E4FDD3F617D0872784FED3F7F61031
:10541000D377F7082722F4FE0357C4FD835784FD92
:105420001D8F9357F7413D8F1D8F8356E4FD8357A2
:10543000A4FDB387F64093D6F741B58F958F63D11E
:10544000E72651A20357C4FD0356E4FD832744FD1C
:1054500093F6F70FB7750020BA878A07BA979207B5
:105460001387450BBA97B2972380D700032744FDD3
:105470008D47630AF702032744FD91476303F7044E
:10548000032744FD8947631CF7048356C4FD8357F3
:10549000E4FD13F7F70FB787002093874737B697D8
:1054A0002380E7002DA88356C4FD8357E4FD13F73E
:1054B000F70FB78700209387C73EB6972380E70092
:1054C00039A88356C4FD8357E4FD13F7F70FB78758
:1054D00000209387073BB6972380E700010003571E
:1054E000C4FE8357C4FDBA97231EF4FC0357C4FDC2
:1054F000835784FDE318F7F45DAA0357C4FD0356F0
:10550000E4FD832744FD93F6F70FB7750020BA87B3
:105510008A07BA9792071387450BBA97B2972380E9
:10552000D700032744FD8D47630AF702032744FD94
:1055300091476303F704032744FD8947631CF7047D
:105540008356C4FD8357E4FD13F7F70FB787002098
:1055500093874737B6972380E7002DA88356C4FD6D
:105560008357E4FD13F7F70FB78700209387C73EF3
:10557000B6972380E70039A88356C4FD8357E4FD1E
:1055800013F7F70FB78700209387073BB697238061
:10559000E70001000357C4FE8357C4FDBA97231EDA
:1055A000F4FC8357C4FD53F717D0872744FE537785
:1055B000F708872784FED377F718D39707C0C20769
:1055C000C187231FF4FC0357C4FD835784FDE316F2
:1055D000F7F2F1A80357C4FD0356E4FD832744FD09
:1055E00093F6F70FB7750020BA878A07BA97920724
:1055F0001387450BBA97B2972380D700032744FD42
:105600008D47630AF702032744FD91476303F704BC
:10561000032744FD8947631CF7048356C4FD835761
:10562000E4FD13F7F70FB787002093874737B69746
:105630002380E7002DA88356C4FD8357E4FD13F7AC
:10564000F70FB78700209387C73EB6972380E70000
:1056500039A88356C4FD8357E4FD13F7F70FB787C6
:1056600000209387073BB6972380E700010003578C
:10567000E4FE8357E4FDBA97231FF4FC8357E4FD4F
:1056800053F717D0872784FE5377F710872744FEF8
:10569000D377F700D39707C0C207C187231EF4FC56
:1056A0000357E4FD8357A4FDE316F7F209A00100B8
:1056B0003254456182805D71A2C68008232EA4FA0F
:1056C000AE873687A30DF4FAB287230DF4FABA87B2
:1056D000A30CF4FA232404FE232204FE232804FC52
:1056E000232604FC232004FE232E04FC232404FC94
:1056F000232204FC232C04FC232A04FC8347B4FB50
:105700001387C7FF834794FB63C7E7008347B4FB56
:10571000ED17A30CF4FA8347A4FB2326F4FEA1A8FB
:105720000727C4FDCD6787A787A6D377F700272E65
:10573000F4FC8327C4FED3F707D0072784FED37772
:10574000F7002724F4FE8327C4FE0327C4FBBA977F
:1057500083C707003E878327C4FEBA97D3F707D0D5
:10576000072744FED377F7002722F4FE8327C4FEE1
:1057700085072326F4FE834794FB0327C4FEE3D169
:10578000E7FA072784FE8727C4FDD377F718272871
:10579000F4FC072744FE8727C4FDD377F718272694
:1057A000F4FC8347A4FB2326F4FEF9A08327C4FE60
:1057B0000327C4FBBA9783C707003E878327C4FE2D
:1057C000BA9753F707D08727C4FCD377F708272465
:1057D000F4FC8327C4FE53F707D0872704FDD37753
:1057E000F7082722F4FC072784FC872744FC53771B
:1057F000F710CD6787A7C7A6D377F710D39707C051
:10580000D3F707D0072784FDD377F700272CF4FCC4
:10581000072784FDCD6787A707A75377F718CD67BC
:1058200087A707A7D377F710272CF4FC8327C4FE9C
:1058300053F707D0872704FD5377F7088327C4FE63
:10584000D3F607D0872704FDD3F7F6085377F71070
:10585000CD6787A7C7A6D377F710D39707C0D3F72D
:1058600007D0072744FDD377F700272AF4FC8327C6
:10587000C4FE85072326F4FE834794FB0327C4FE5A
:10588000E3D6E7F2872744FD530700F0D3A7E7A04C
:1058900081C7232004FE31A8072784FDCD6787A791
:1058A00047A75377F710872744FDD377F7182720AA
:1058B000F4FE872704FE5385F72036446161828019
:1058C000397122DE80002326A4FC2324B4FCCD679A
:1058D00087A787A72722F4FECD6787A7C7A727201A
:1058E000F4FE232604FE45A08327C4FE53F717D0F9
:1058F000872744FED377F710D39717C0232EF4FCE5
:105900000327C4FEBA878A07BA979207232CF4FCB0
:105910000327C4FD9307C00BB307F702232AF4FC47
:10592000232404FEB1A0832784FE53F717D08727D2
:1059300004FED377F710D39717C02328F4FC03276E
:1059400044FD832704FDBA970327C4FC3E978326B2
:1059500084FD832784FEB697832684FCB69703478D
:1059600007002380E700832784FE85072324F4FEB5
:10597000032784FE9307F004E3F7E7FA8327C4FEC6
:1059800085072326F4FE0327C4FE9307B003E3FD37
:10599000E7F40100725421618280130101B8232EC3
:1059A0001146232C8146232A2147232831471304FB
:1059B00001482326A4B8AE8732872315F4B8BA87E6
:1059C0002314F4B88357A4B82315F4FC835784B880
:1059D0002314F4FC8327C4B82322F4FC930704B9EE
:1059E000130700403A8681453E85EFA07F81232240
:1059F00004FE232004FE232E04FC232C04FC23207D
:105A000004FC232E04FA232804FA232A04FA23246C
:105A100004FA232604FA232004FA232204FA232C6E
:105A200004F8232E04F8232804FC232A04FC23284A
:105A300004F8232A04F8A30704FC230704FCA306A4
:105A400004FC231504FEA5A0232604FEB1A00357E1
:105A5000A4FE8357A4FC3307F7028327C4FEBA973A
:105A60003E87832744FCBA9783C707003E87931776
:105A70002700930604FFB69783A707BA93861700FB
:105A800093172700130704FFBA9723A0D7BA8327D9
:105A9000C4FE85072326F4FE8357A4FC0327C4FE17
:105AA000E347F7FA8357A4FE85072315F4FE03574F
:105AB000A4FE835784FCE369F7F8A30704FC31A034
:105AC0008347F4FC8507A307F4FC8347F4FC8A07AB
:105AD000130704FFBA9783A707BAFDD3FD5723071F
